:100000000C942F180C9460180C9460180C946018C1
:100010000C9460180C9460180C9460180C94601880
:100020000C9460180C9460180C9460180C94601870
:100030000C9460180C9460180C9460180C94601860
:100040000C9460180C94EB530C9460180C9460188A
:100050000C9460180C9460180C94B1860C941DC814
:100060000C9460180C942D410C9423410C9460184E
:100070000C9460180C9460180C9460180C94601820
:100080000C9460180C9460180C9460180C94601810
:100090000C9460180C9460180C9460180C94601800
:1000A0000C9460180C9460180C9460180C946018F0
:1000B0000C9460180C9460180C9460180C946018E0
:1000C0000C9460180C9460180C9460180C946018D0
:1000D0000C9460180C9460180C9460180C946018C0
:1000E0000C9460183FC442C431C435C43BC479C4C5
:1000F00046C44AC450C454C458C45EC462C466C42E
:1001000079C46CC470C474C437C73CC741C74BC7FB
:1001100055C7CEC75FC767C76FC779C783C78DC7C6
:100120009CC7A6C7CEC7B0C7BAC7C4C7084AD73B83
:100130003BCE016E84BCBFFDC12F3D6C74319ABDB6
:1001400056833DDA3D00C77F11BED9E4BB4C3E91DA
:100150006BAAAABE000000803F05A84CCDB2D44EC9
:10016000B93836A9020C50B9918688083CA6AAAACB
:100170002ABE000000803F000C941F4B0C94534E8D
:100180000C946E510C9441C70C94A6BF0C9456511C
:100190000C9458C40C946DBF0C949F6B0C9468BF66
:1001A0000C947D4B0C945B4B0C949B4B0C94984B98
:1001B0000C945FC70C944A510C9477BF0C944AC4BA
:1001C0000C94506C0C94FA650C9437C70C9467C867
:1001D0000C94CEC70C94CA6B0C945EC40C94DC6F68
:1001E0000C946CC40C9445790C9450C40C948A4BB8
:1001F0000C944BC70C943CC70C9437770C94625109
:100200000C946FC70C9454C40C94094C0C94BAC74A
:100210000C9439770C946F4B0C94736C0C949A4C2F
:100220000C9467730C94F47C0C943E510C94F17C08
:100230000C94FE750C9442C40C941FD30C941DA80E
:100240000C94E8770C94118D0C9470C40C949ABFA4
:100250000C94D1650C9480770C948DC70C9455C781
:100260000C94BA7A0C9499700C945C510C9466C4FA
:100270000C94DCDB0C9474C40C947D4C0C944451B1
:100280000C94604C0C94804E0C9446C40C943FC467
:100290000C9431C40C94ACBF0C9469730C948471AD
:1002A0000C94C4C70C946B520C94F54A0C949CC7E4
:1002B0000C94474B0C9479C40C9481BF0C946D71D1
:1002C0000C94A14C0C9462C40C943BC40C94D8BD07
:1002D0000C9465730C94F07C0C941C6E0C9435C4D7
:1002E0000C94894E0C9463BF0C9483C70C94334BCD
:1002F0000C94264C0C9468510C94A6BE0C9467C7C1
:100300000C94B0C70C9450510C9456710C9479C74E
:100310000C940B4B0C9470AA0C9451BC0C9476AAC0
:100320000C94A0BF0C9472BF0C94A6C70C947CBF15
:100330000C9473AA0C94434C4E414E494E49545967
:10034000494E46CDCCCC3D0AD7233C17B7D13877A0
:10035000CC2B329595E6241FB14F0A0000204100B6
:1003600000C84200401C4620BCBE4CCA1B0E5AAE00
:10037000C59D74434F4D4D554E49434154494F4ED1
:100380000044525952554E004552524F5253004963
:100390004E464F004543484F0020746F6F206C6FEE
:1003A0006E6720657874727573696F6E2070726500
:1003B00076656E7465640A0020636F6C64206578EE
:1003C00074727573696F6E2070726576656E746590
:1003D000640A0047322F47332062616420706172E3
:1003E000616D65746572730A00536C6565702E2EBD
:1003F0002E00436C69636B20746F20726573756D9A
:10040000652E2E2E004E6F206D6F76652E00456E88
:10041000642066696C65206C6973740A00426567C4
:10042000696E2066696C65206C6973740A00286EB9
:100430006F2066696C65290043757272656E742061
:1004400066696C653A20005344207072696E746965
:100450006E67206279746520004E6F7420534420CB
:100460007072696E74696E670A0044656C657469C0
:100470006F6E206661696C65642C2046696C653A14
:10048000200046696C652064656C657465643A009B
:100490002569730025696D20256973002569682029
:1004A00025696D2025697300256964202569682008
:1004B00025696D20256973002569792025696420E7
:1004C0002569682025696D20256973005072696E61
:1004D000742074696D653A200020573A0045204326
:1004E0006F6F6C696E672E2E2E0045204865617413
:1004F000696E672E2E2E006F66660094038F038848
:10050000038103730344454255473A004D3131336B
:100510002053006F6B004A474175726F7261204132
:100520003558204F46462E004D4F54494F4E5F4D93
:100530004F44455300544845524D414C5F50524F33
:1005400054454354494F4E004155544F5245504F26
:1005500052545F53445F53544154555300454D45E5
:100560005247454E43595F50415253455200434113
:1005700053455F4C494748545F4252494748544E9F
:1005800045535300544F47474C455F4C49474854E7
:100590005300534F4654574152455F504F574552B1
:1005A000004255494C445F50455243454E54004C1F
:1005B0004556454C494E475F44415441005A5F50AF
:1005C000524F4245004155544F4C4556454C005002
:1005D00052494E545F4A4F420050524F4752455382
:1005E00053004155544F5245504F52545F54454D5E
:1005F0005000564F4C554D455452494300454550C7
:10060000524F4D0053455249414C5F584F4E5F5831
:100610004F4646004649524D574152455F4E414D67
:10062000453A4D61726C696E206275676669782D16
:10063000322E302E7820284769746875622920533D
:100640004F555243455F434F44455F55524C3A68BE
:10065000747470733A2F2F6769746875622E636FB4
:100660006D2F4D61726C696E4669726D776172654E
:100670002F4D61726C696E2050524F544F434F4C56
:100680005F56455253494F4E3A312E30204D41432B
:1006900048494E455F545950453A4A474175726F33
:1006A0007261204135582045585452554445525F97
:1006B000434F554E543A3120555549443A63656489
:1006C00065326132662D343161322D343734382D44
:1006D000396231322D6335356336326633363766EB
:1006E000660A002F2F20004D31343520533C696EAF
:1006F0006465783E206F7574206F662072616E6746
:10070000652028302D31290A002054002052004154
:100710006363656C65726174696F6E3A2050002086
:100720005A323A004475616C20456E6473746F7080
:100730002041646A7573746D656E7420286D6D292F
:100740003A20004F4646004F4E00205A00205900E4
:10075000580020204D61783A2000205A002059008E
:10076000580020204D696E3A2000536F6674206552
:100770006E6473746F70733A200020466C6F773A22
:10078000200050726F7465637465642050696E0A4E
:1007900000496E76616C6964206578747275646571
:1007A000720A0020643A0020693A0020703A002062
:1007B000643A0020693A0020703A0043290A006137
:1007C000626C656420286D696E2074656D70200010
:1007D000436F6C6420657874727564657320617210
:1007E00065200023646566696E6520444546415571
:1007F0004C545F0000626564004B6420004B69202C
:10080000004B702000504944204175746F74756E20
:10081000652066696E69736865642120507574206F
:10082000746865206C617374204B702C204B6920B8
:10083000616E64204B6420636F6E7374616E7473B9
:100840002066726F6D2062656C6F7720696E746FC1
:1008500020436F6E66696775726174696F6E2E688A
:100860000A00504944204175746F74756E652066A6
:1008700061696C6564212074696D656F75740A0027
:10088000453120544845524D414C2052554E415718
:1008900041590042454420544845524D414C205254
:1008A000554E4157415900546865726D616C205234
:1008B000756E617761790045312048656174696EB4
:1008C00067206661696C65640042656420686561E3
:1008D00074696E67206661696C656400486561745F
:1008E000696E67206661696C656400504944204107
:1008F00075746F74756E65206661696C656421201E
:1009000054656D706572617475726520746F6F20C7
:10091000686967680A00204B643A2000204B693AF6
:100920002000204B703A20000A20436C61737369E9
:100930006320504944200A002054753A2000204B7F
:10094000753A2000206D61783A2000206D696E3A7A
:10095000200020643A200020626961733A20005030
:100960004944204175746F74756E652073746172AB
:10097000740A00504944204175746F74756E652087
:100980006661696C656421204261642065787472D7
:1009900075646572206E756D6265720A00486F6DD0
:1009A0006520257325732573206669727374002092
:1009B00066697273740A005A0059005800486F6DD6
:1009C0006520004F666673657473206170706C6992
:1009D0006564004572723A20546F6F20666172211F
:1009E00000546F6F206661722066726F6D207265B1
:1009F000666572656E636520706F696E740A004586
:100A00004550524F4D204F4B0A004E6F206361738B
:100A100065206C696768740A00496E76616C696468
:100A20002065787472756465720A004572726F721F
:100A30002077726974696E6720746F204545505243
:100A40004F4D210A00363726033B3C3D380E3F2EE2
:100A5000303E12132824221E2C1A1C182A08440A7D
:100A6000FF430809070001627573793A20706175C8
:100A700073656420666F7220696E7075740A006217
:100A80007573793A2070617573656420666F7220A2
:100A9000757365720A00627573793A2070726F63BC
:100AA000657373696E670A004B494C4C206361752E
:100AB000736564206279204B494C4C2062757474D4
:100AC0006F6E2F70696E0A004B494C4C2063617544
:100AD00073656420627920746F6F206D7563682080
:100AE000696E6163746976652074696D65202D2077
:100AF00063757272656E7420636F6D6D616E643ABA
:100B00002000506C656173652072657365740050D8
:100B100052494E5445522048414C544544004B499B
:100B20004C4C45442E20005072696E7465722068EA
:100B3000616C7465642E206B696C6C28292063617C
:100B40006C6C6564210A006563686F3A00457272D7
:100B50006F723A0020496E76616C69642065787422
:100B60007275646572200024F4D43050C38E20C2A4
:100B7000A24017828B7011127A910D816CD90AA84C
:100B800061E108C7586607615143061E4B5D05C108
:100B900045A7041A411104093D98037139310340F6
:100BA00036DB0265339102D4305402802E1D02637D
:100BB0002CEE01752AC501B028A001102781018FF4
:100BC0002564012B244B01E0223401AC211F018D4F
:100BD000200D01801FFC00841EED00971DDF00B872
:100BE0001CD200E61BC600201BBC00641AB200B277
:100BF00019A8000A19A0006A189900D1179100409D
:100C0000178B00B516840031167E00B31579003AB3
:100C1000157300C7146F0058146A00EE136600883D
:100C200013630025135E00C7125B006C125700159A
:100C3000125400C111510070114F0021114B00D608
:100C40001049008D1047004610440002104200C0B9
:100C50000F4000800F3E00420F3C00060F3B00CBD0
:100C60000E3800930E37005C0E3500270E3400F36B
:100C70000D3200C10D3100900D3000600D2E00329C
:100C80000D2D00050D2C00D90C2B00AE0C29008574
:100C90000C29005C0C2700350C27000E0C2600E800
:100CA0000B2400C40B2400A00B23007D0B23005A4F
:100CB0000B2100390B2100180B2000F80A1F00D966
:100CC0000A1E00BB0A1E009D0A1D00800A1D00634B
:100CD0000A1C00470A1B002C0A1B00110A1A00F705
:100CE000091A00DD091900C4091900AB091900929D
:100CF0000917007B091800630917004C0916003614
:100D0000091600200916000A091500F5081500E06B
:100D1000081400CC081400B8081400A408140090AB
:100D20000813007D0812006B0813005808120046D3
:100D300008120034081100230811001208110001E4
:100D4000081100F0071000E0071000D0071000C0E5
:100D5000071000B0070F00A107100091070E0083D5
:100D6000070F0074070F0065070E0057070E0049B4
:100D7000070E003B070D002E070E0020070D001385
:100D8000070D0006070D00F9060C00ED060D00E04A
:100D9000060C00D4060C00C8060C00BC060C00B003
:100DA000060C00A4060B0099060C008D060B0082B1
:100DB000060B0077060B006C060B0061060A005755
:100DC000060B004C060A0042060A0038060A002EEE
:100DD000060A0024060A001A060A0010060900077F
:100DE000060A00FD050900F4050900EB050900E20B
:100DF000050900D9050900D0050900C7050900BE8D
:100E0000050900B5050800AD050800A50509009C09
:100E1000050800940508008C050800840508007C7E
:100E2000050800740508006C050700650508005DED
:100E3000050700560508004E050700470507004056
:100E400005080038050700310507002A05070023BB
:100E50000507001C050600160507000F050700081A
:100E600005060002050700FB040600F5040700EE76
:100E7000040600E8040600E2040700DB040600D5CF
:100E8000040600CF040600C9040600C3040600BD22
:100E9000040600B7040600B1040500AC040600A671
:100EA000040600A00405009B0406009504050090BC
:100EB0000406008A04050085040500800406007A03
:100EC00004050075040500700405006B0405006648
:100ED000040500610405005C040500570405005288
:100EE0000405004D04050048040500430405003EC8
:100EF0000404003A04050035040500300404002C05
:100F000004050027040400230405001E0404001A3D
:100F100004040016040500110404000D0404000973
:100F20000405000404040000040400FC030400F8A9
:100F3000030400F4030400F0030400EC030400E8DD
:100F4000030400E4030400E0030400DC030400D80D
:100F5000030400D4030400D0030400CC030400C83D
:100F6000030300C503030024F404D9201BC40C5C54
:100F70000E9804C4095F0265077101F405F900FBCE
:100F800004B30048048700C10369005803550003F7
:100F9000034500BE023A008402310053022A0029B0
:100FA00002250004022000E4011C00C8011900AF62
:100FB00001170098011400840113007101100061F1
:100FC00001100051010E0043010D0036010B002BF2
:100FD000010B0020010B00150109000C01090003A1
:100FE000010800FB000800F3000800EB000700E424
:100FF000000600DE000600D8000600D2000600CC85
:10100000000500C7000500C2000500BD000400B9CE
:10101000000400B5000400B1000400AD000400A904
:10102000000400A5000300A20003009F0004009B31
:101030000003009800030095000200930003009055
:101040000003008D0002008B000300880002008670
:1010500000020084000300810002007F0002007D86
:101060000002007B00020079000200770001007698
:101070000002007400020072000100710002006FA3
:101080000002006D0001006C0002006A00010069AE
:1010900000020067000100660001006500010064B5
:1010A0000002006200010061000100600001005FB9
:1010B0000002005D0001005C0001005B0001005ABD
:1010C00000010059000100580001005700010056BE
:1010D00000010055000100540001005300000053BE
:1010E0000001005200010051000100500001004FBA
:1010F0000001004E0000004E0001004D0001004CB8
:101100000001004B0000004B0001004A00010049B3
:1011100000010048000000480001004700010046AF
:1011200000000046000100450000004500010044A9
:1011300000010043000000430001004200000042A3
:101140000001004100000041000100400001003F9B
:101150000000003F0001003E0000003E0001003D95
:101160000000003D0001003C0000003C0000003C8D
:101170000001003B0000003B0001003A0000003A83
:10118000000100390000003900010038000000387B
:101190000000003800010037000000370001003671
:1011A0000000003600000036000100350000003568
:1011B000000000350001003400000034000000345D
:1011C0000001003300000033000000330001003252
:1011D0000000003200000032000100310000003148
:1011E000000000310001003000000030000000303D
:1011F0000001002F0000002F0000002F0000002F32
:101200000001002E0000002E0000002E0001002D25
:101210000000002D0000002D0000002D0001002C1A
:101220000000002C0000002C0000002C0001002B0E
:101230000000002B0000002B0000002B0001002A02
:101240000000002A0000002A0000002A00010029F6
:1012500000000029000000290000002900000029EA
:1012600000010028000000280000002800000028DD
:1012700000000028000100270000002700000027D0
:1012800000000027000000270001002600000026C3
:1012900000000026000000260000002600010025B6
:1012A00000000025000000250000002500000025AA
:1012B000000000250001002400000024000000249C
:1012C000000000240000002400010023000000238F
:1012D0000000002300000023000000230000002382
:1012E0000000002300010022000000220000002274
:1012F0000000002200000022000000220001002166
:101300000000002100000021000000210000002159
:10131000000000210000002100010020000000204A
:10132000000000200000002000000020000000203D
:1013300000000020000000200001001F0000001F2E
:101340000000001F0000001F0000001F0000001F21
:101350000000001F0001001E0000001E0000001E13
:101360000000001E00000039300000332500008717
:10137000190000B00F0000DB080000BD040000747D
:101380000200003F01000000060C00FE07022903D6
:10139000BF017FFE08FE08FE05080806000040F0B9
:1013A000C88888987810050808060000C0F8888862
:1013B000888888F80505050600012030F8302005EA
:1013C00008080600002070F820202020E005090908
:1013D0000600FF2070A8A8B88888702005090906B3
:1013E00000FFE080C0B0A8283028280509090600C1
:1013F000FFF8A88888888888A8F8050A0A0600FEE9
:10140000205050505088A8A888700303030600039A
:1014100040A040FFFFFFFFFFFFFFFFFFFFFFFFFFB9
:10142000FFFFFFFFFFFFFFFFFF0000000605FF01BA
:101430000707060200808080808000800303030687
:101440000105A0A0A005060606000050F85050F8BF
:10145000500509090600FF2070A8A07028A8702078
:10146000050707060000C8C8102040989805070720
:1014700006000040A0A040A89068010303060205F2
:101480008080800309090601FF2040408080804061
:1014900040200309090601FF8040402020204040F1
:1014A0008005070706000020A8702070A820050509
:1014B000050600012020F820200203030601FFC0DA
:1014C0004080050101060003F8020202060100C087
:1014D000C0050707060000081010204040800507DF
:1014E00007060000708898A8C888700307070601DF
:1014F0000040C040404040E00507070600007088FB
:1015000008102040F8050707060000F8081030080A
:10151000887005070706000010305090F81010057D
:101520000707060000F880F008088870050707061E
:101530000000304080F0888870050707060000F83A
:10154000081010202020050707060000708888700A
:101550008888700507070600007088887808106082
:10156000020505060100C0C000C0C0020606060153
:10157000FFC0C000C0408003050506010120408077
:101580004020050303060002F800F80305050601E4
:101590000180402040800507070600007088102069
:1015A0002000200507070600007088B8A8B88070E2
:1015B000050707060000708888F8888888050707EF
:1015C000060000F04848704848F00507070600008C
:1015D00070888080808870050707060000F0484802
:1015E000484848F0050707060000F88080F0808032
:1015F000F8050707060000F88080F0808080050766
:10160000070600007088808098887005070706002C
:1016100000888888F8888888030707060100E0406A
:1016200040404040E0050707060000381010101049
:1016300090600507070600008890A0C0A09088056C
:101640000707060000808080808080F80507070675
:10165000000088D8A88888888805070706000088C1
:1016600088C8A898888805070706000070888888B9
:10167000888870050707060000F08888F080808061
:1016800005070706000070888888A8906805070786
:10169000060000F08888F0A0908805070706000083
:1016A00070888070088870050707060000F8202001
:1016B0002020202005070706000088888888888861
:1016C00070050707060000888888885050200507A5
:1016D0000706000088888888A8A850050707060024
:1016E00000888850205088880507070600008888F1
:1016F0005020202020050707060000F80810204091
:1017000080F80309090601FFE080808080808080E6
:10171000E00507070600008040402010100803097C
:10172000090601FFE020202020202020E0050303FF
:101730000600052050880501010600FEF80303039A
:101740000601058040200505050600007008788820
:10175000780507070600008080F0888888F0050576
:1017600005060000708080887005070706000008E5
:101770000878888888780505050600007088F0805C
:1017800070050707060000304840E040404005076C
:10179000070600FE7088888878087005070706002D
:1017A000008080F0888888880307070601004000D1
:1017B000C0404040E00409090601FE10003010104E
:1017C0001010906005070706000080808890E09068
:1017D00088030707060100C04040404040E005057F
:1017E00005060000D0A8A8A8A8050505060000B0B9
:1017F000C8888888050505060000708888887005F7
:1018000007070600FEF0888888F080800507070635
:1018100000FE78888888780808050505060000B06D
:10182000C880808005050506000078807008F005F6
:1018300007070600002020F82020201805050506CF
:101840000000888888986805050506000088888853
:1018500050200505050600008888A8A85005050544
:1018600006000088502050880507070600FE88887B
:101870008850204080050505060000F8102040F83B
:101880000309090601FF20404040804040402001FC
:1018900009090602FF8080808080808080800309A3
:1018A000090601FF8040404020404040800503037E
:1018B00006000248A890FF000080C0000050C10050
:1018C0000000005761726E696E673A20486F6D695B
:1018D0006E672042756D702044697669736F72205F
:1018E0003C20310A000202040000A0400000A04099
:1018F00000004040FFFDFCFAF8F6F4F2F0EEECEAEE
:10190000E9E7E5E3E1E0DEDCDAD9D7D5D4D2D0CF20
:10191000CDCBCAC8C7C5C3C2C0BFBDBCBAB9B7B6B4
:10192000B4B3B2B0AFADACAAA9A8A6A5A4A2A1A019
:101930009E9D9C9A99989795949392908F8E8D8B5B
:101940008A8988878684838281807F7E7D7B7A797D
:101950007877767574737271706F6E6D6C6B6A697F
:101960006867666564636261605F5E5D5C5B5A596F
:1019700058585756555453525150504F4E4D4C4B4A
:101980004A4A4948474646454443424241403F3E11
:101990003E3D3C3B3B3A39383837363535343332C7
:1019A000323130302F2E2E2D2C2B2B2A292928276F
:1019B0002726252524232322212120201F1E1E1D0A
:1019C0001C1C1B1B1A191918181716161515141399
:1019D0001312121111100F0F0E0E0D0D0C0C0B0A1D
:1019E0000A09090808070706060505040403030297
:1019F0000201000000000001000000010000800062
:101A0000555555000000400033333300AAAA2A0080
:101A10004992240000002000C7711C009999190008
:101A2000D1451700555515003BB11300244912004C
:101A300011111100000010000F0F0F00E3380E000D
:101A400043790D00CCCC0C00C3300C00E8A20B0095
:101A500064210B00AAAA0A00703D0A009DD8090063
:101A6000427B090092240900DCD308008888080022
:101A70001042080000000800F0C107008787070037
:101A800075500700711C07003EEB0600A1BC060064
:101A90006990060066660600703E06006118060042
:101AA00017F4050074D105005BB00500B290050085
:101AB000627205005555050078390500B81E05000D
:101AC000050505004EEC040087D40400A1BD040008
:101AD00090A7040049920400C17D0400EE6904004F
:101AE000C7560400444404005C320400082104008A
:101AF00041100400000004003FF00300F8E0030080
:101B000026D20300C3C30300CCB503003AA80300E8
:101B10000A9B0300388E0300C08103009F750300F9
:101B2000D0690300505E03001D53030034480300D6
:101B3000913D03003333030016290300381F0300CF
:101B400097150300300C0300030303000BFA020097
:101B500049F10200BAE802005CE002002DD8020060
:101B60002DD0020059C80200B0C0020031B90200F5
:101B7000DAB10200AAAA0200A0A30200BC9C0200E3
:101B8000FA9502005C8F0200DF8802008282020068
:101B9000457C02002776020027700200436A02009B
:101BA0007C640200D05E02003F590200C85302006C
:101BB000454550524F4D206461746173697A6520C8
:101BC0006572726F722E0A00290A002062797465AC
:101BD000733B2063726320002073746F726564200E
:101BE00073657474696E6773207265747269657663
:101BF0006564202800202863616C63756C617465DE
:101C00006429210A0020213D2000454550524F4DB6
:101C100020435243206D69736D61746368202D20E9
:101C20002873746F7265642920002053697A653ABD
:101C30002000496E6465783A2000204D61726C691D
:101C40006E3D563633290A0028454550524F4D3DCA
:101C500000454550524F4D2076657273696F6E2076
:101C60006D69736D61746368200048617264636FAD
:101C70006465642044656661756C74205365747492
:101C8000696E6773204C6F616465640A00B80B006D
:101C900000B80B00006400000088130000000096EC
:101CA0004300009643000020410000C8410000A00E
:101CB000420000A0420000C8430000B04220286D4E
:101CC0006D290020440020490020204D333034206D
:101CD000500020440020490020204D333031205056
:101CE000005049442073657474696E67733A0A0042
:101CF00020460020420020480020204D313435206D
:101D000053004D6174657269616C2068656174751A
:101D10007020706172616D65746572733A0A00209B
:101D20005A0020204D36363600456E6473746F704D
:101D30002061646A7573746D656E743A0A00205A86
:101D40000020590020204D323036205800486F6D59
:101D500065206F66667365743A0A00204500205A54
:101D60000020590020580020540020530020204D0E
:101D700032303520420020453C6D61785F655F6AF6
:101D800065726B3E0020583C6D61785F785F6A65D4
:101D9000726B3E20593C6D61785F795F6A65726B4A
:101DA0003E205A3C6D61785F7A5F6A65726B3E00D7
:101DB000416476616E6365643A20423C6D696E5F92
:101DC0007365676D656E745F74696D655F75733E8D
:101DD00020533C6D696E5F66656564726174653E33
:101DE00020543C6D696E5F74726176656C5F6665E8
:101DF0006564726174653E0020540020520020200A
:101E00004D323034205000416363656C65726174FB
:101E1000696F6E2028756E6974732F7332293A20AA
:101E2000503C7072696E745F616363656C3E2052F2
:101E30003C726574726163745F616363656C3E20BC
:101E4000543C74726176656C5F616363656C3E0AD5
:101E500000204500205A0020590020204D3230310A
:101E60002058004D6178696D756D20416363656C24
:101E700065726174696F6E2028756E6974732F7353
:101E800032293A0A00204500205A0020590020201B
:101E90004D3230332058004D6178696D756D206684
:101EA00065656472617465732028756E6974732F3B
:101EB00073293A0A00204500205A002059002020AA
:101EC0004D3932205800537465707320706572204C
:101ED000756E69743A0A0020204D3230302044304B
:101EE0000A0020204D3230302044002044697361C4
:101EF000626C65640A0046696C616D656E7420737E
:101F0000657474696E67733A0020204D313439204E
:101F100043203B20556E69747320696E2043656CC5
:101F2000736975730A002020473231202020203B3E
:101F300020556E69747320696E206D6D005772694B
:101F400074696E6720746F2066696C653A20006F53
:101F500070656E206661696C65642C2046696C65ED
:101F60003A20006F70656E206661696C65642C2094
:101F700046696C653A200046696C652073656C653E
:101F8000637465640A002053697A653A20004669E3
:101F90006C65206F70656E65643A200066726573CB
:101FA0006800646F696E67002066696C653A20009E
:101FB0004E6F772000454E4420535542524F5554A2
:101FC000494E450A002220706F7300222070617212
:101FD000656E743A2200535542524F5554494E454E
:101FE0002043414C4C207461726765743A2200743E
:101FF0007279696E6720746F2063616C6C207375F1
:10200000622D67636F64652066696C65732077690C
:10201000746820746F6F206D616E79206C657665D1
:102020006C732E204D4158206C6576656C20697369
:102030003A001FFFFFFFFFFFFF600000000001FFED
:10204000400000000000FF8000000000007F83CF00
:1020500000000C303F87FF80000C301F8679800025
:102060000C000F8C30C7838C30E78C30CFC7CC315D
:10207000F38C30DCECEC33B98C30D86C6C33198CCD
:1020800030D06C0C33198C30D86C0C33198C30DC9C
:102090006C0E3B198C30CF7C079F198C30C77C03AA
:1020A0008F194000000000000260000000000006E0
:1020B0001FFFFFFFFFFFF82020506C616E6E6572FE
:1020C00042756666657242797465733A20002046EF
:1020D000726565204D656D6F72793A2000436F6DB2
:1020E00070696C65643A204E6F7620323920323048
:1020F00031380A00207C20417574686F723A2028BC
:102100005068696C6970706520526F646965722CE3
:10211000204A474175726F726120413558205374CF
:102120006F636B290A00323031382D30312D323057
:1021300000204C61737420557064617465643A20AA
:10214000006275676669782D322E302E780A004D50
:1021500061726C696E0020536F66747761726520DE
:1021600052657365740A00205761746368646F6711
:102170002052657365740A002042726F776E206F7B
:1021800075742052657365740A0020457874657211
:102190006E616C2052657365740A00506F776572CA
:1021A00055700A0073746172740A006175746F254A
:1021B000632E67006572726F722077726974696E40
:1021C0006720746F2066696C650A00446F6E652035
:1021D000736176696E672066696C652E0A004D3200
:1021E0003900456E6473746F707320256320256316
:1021F00020256320256300205A3A0020593A002008
:10220000583A00656E6473746F7073206869743A2D
:1022100020005072656865617420504C4120426511
:1022200064005072656865617420504C4120456EB1
:1022300064005072656865617420504C41005465BB
:102240006D70657261747572650050726568656164
:10225000742041425320456E640050726568656188
:102260007420414253204265640050726568656184
:1022700074204142530054656D70657261747572CB
:102280006500507265686561742041425300507268
:10229000656865617420504C4100436F6F6C646FDA
:1022A000776E0046616E207370656564203200466B
:1022B000616E20737065656420320046616E207324
:1022C0007065656420310046616E207370656564D9
:1022D00020310042656400426564004E6F7A7A6C7A
:1022E00065004E6F7A7A6C65004D61696E00466CD0
:1022F0006F7700466C6F770046616E20737065657E
:102300006420320046616E2073706565642032007F
:1023100046616E20737065656420310046616E20F1
:102320007370656564203100426564004265640035
:102330004E6F7A7A6C65004E6F7A7A6C65005370D6
:10234000656564005370656564004D61696E0046A3
:10235000696C2E204469612E0046696C2E20446908
:10236000612E004F6666004F6E004520696E206D3D
:102370006D5E3300416476616E63656420536574FD
:1023800074696E6773005049442D44005049442DD0
:1023900044005049442D49005049442D49005049BA
:1023A000442D50005049442D5000200820466163C0
:1023B000740020082046616374002008204D617875
:1023C000002008204D6178002008204D696E002013
:1023D00008204D696E004F6666004F6E00417574AF
:1023E0006F74656D7000416476616E63656420533F
:1023F000657474696E6773005654726176206D69F6
:102400006E005654726176206D696E00566D696E6D
:1024100000566D696E00566D6178204500566D61FD
:1024200078204500566D6178205A00566D617820FD
:102430005A00566D6178205900566D617820590018
:10244000566D6178205800566D61782058004164BF
:1024500076616E6365642053657474696E6773009A
:10246000416D6178204500416D6178204500416DE6
:102470006178205A00416D6178205A00416D617881
:10248000205900416D6178205900416D61782058D4
:1024900000416D6178205800412D74726176656C41
:1024A00000412D74726176656C00412D7265747205
:1024B00061637400412D72657472616374004163DD
:1024C00063656C00416363656C00416476616E63B3
:1024D00065642053657474696E67730056652D6A70
:1024E00065726B0056652D6A65726B00567A2D6AAF
:1024F00065726B00567A2D6A65726B0056792D6A8B
:1025000065726B0056792D6A65726B0056782D6A7C
:1025100065726B0056782D6A65726B004164766156
:102520006E6365642053657474696E6773004573E8
:10253000746570732F6D6D004573746570732F6DC6
:102540006D005A73746570732F6D6D005A737465E6
:1025500070732F6D6D005973746570732F6D6D00FE
:102560005973746570732F6D6D0058737465707353
:102570002F6D6D005873746570732F6D6D0041641D
:1025800076616E6365642053657474696E67730069
:10259000496E697469616C697A6520454550524F8E
:1025A0004D00416476616E6365642053657474699F
:1025B0006E6773006F6B00526573656E643A20003E
:1025C00053544F505045442E20005072696E74652C
:1025D000722073746F707065642064756520746F09
:1025E000206572726F72732E204669782074686558
:1025F000206572726F7220616E6420757365204D64
:1026000039393920746F20726573746172742E20A9
:102610002854656D706572617475726520697320E8
:1026200072657365742E2053657420697420616629
:102630007465722072657374617274696E67290AB9
:10264000004E6F20436865636B73756D2077697406
:1026500068206C696E65206E756D6265722C204C09
:10266000617374204C696E653A20004E6F20436898
:1026700065636B73756D2077697468206C696E652E
:10268000206E756D6265722C204C617374204C69EC
:102690006E653A2000636865636B73756D206D69C4
:1026A000736D617463682C204C617374204C696E87
:1026B000653A20004C696E65204E756D626572202A
:1026C0006973206E6F74204C617374204C696E6561
:1026D000204E756D6265722B312C204C6173742015
:1026E0004C696E653A20004D313130004D33310078
:1026F00053442072656164206572726F720A0044EF
:102700006F6E65207072696E74696E672066696CA1
:10271000650A0020573A0042656420636F6F6C6958
:102720006E672E2E2E004265642068656174696EA6
:10273000672E2E2E004572723A2075746638206618
:102740006F6E74206E6F7420696E697469616C6954
:102750007A65642E004572723A2075746638206678
:102760006F6E74206E6F7420696E697469616C6934
:102770007A65642E004572723A2075746638206658
:102780006F6E74206E6F7420696E697469616C6914
:102790007A65642E006265640A002C207379737474
:1027A000656D2073746F7070656421204865617475
:1027B00065725F49443A200042656420686561742F
:1027C000696E67206661696C65640048656174695B
:1027D0006E67206661696C656400453120486561FB
:1027E00074696E67206661696C6564004865617430
:1027F000696E67206661696C656400202D20496EF2
:1028000076616C6964206578747275646572206E97
:10281000756D62657220210A0070012C01900127FC
:1028200001B0012201C0011D01F0011801100213C5
:102830000130020E016002090190020401C002FF92
:10284000000003FA004003F5008003F000D003EB22
:10285000002004E6007004E100E004DC004005D73D
:1028600000C005D2004006CD00D006C8008007C3D6
:10287000003008BE00F008B900C009B400B00AAFCB
:1028800000B00BAA00D00CA500000EA000500F9BBA
:1028900000C01096005012910000148C00C01587E3
:1028A00000B0178200B0197D00D01B7800001E73A5
:1028B0000040206E0090226900F024640040275FF1
:1028C0000090295A00E02B5500102E500020304B6C
:1028D0000010324600E033410090353C001037379D
:1028E0000070383200A0392D00B03A2800A03B23F8
:1028F00000603C1E00103D1900903D1400103E0F7A
:1029000000703E0A00C03E0500003F0000403FFB53
:10291000FF803FF6FFC03FF1FF453120544845524C
:102920004D414C2052554E4157415900424544209B
:10293000544845524D414C2052554E415741590043
:10294000546865726D616C2052756E6177617900B3
:102950004531204572723A204D415854454D500042
:102960004572723A204D415854454D5020424544DD
:10297000004D415854454D50207472696767657227
:102980006564004531204572723A204D494E5445E8
:102990004D50004572723A204D494E54454D5020DD
:1029A000424544004D494E54454D5020747269676C
:1029B0006765726564004D383420582059205A20CC
:1029C0004500202F002042403A0020403A00257563
:1029D0003A2530327500253032753A25303275008F
:1029E00025756420253032753A2530327500202057
:1029F000202020200020202020001FE02010201078
:102A000020101020102020102010303008400480AA
:102A100003001FE03FF03FF03FF01FE01FE03FF0FA
:102A20003FF03FF00FC0078003003FFFF038007019
:102A300030FC3020FC102078102030102C00D02EDC
:102A400031D02F7BD02F7BD02E31D02C00D0203016
:102A50001020781020FC1030FC303800703FFFF060
:102A60003FFFF03800703186302387102787902F82
:102A700087D02F03D02030102078102078102030FD
:102A8000102F03D02F87D0278790238710318630CF
:102A90003800703FFFF0FFFFC0FFFFC02082001032
:102AA0004100104100208200410400820800820899
:102AB00000410400208200000000FFFFC0FFFFC0B3
:102AC000556E6B6E6F776E20636F6D6D616E643ADD
:102AD00020220020746F6F206C6F6E672065787401
:102AE000727573696F6E2070726576656E74656459
:102AF0000A0020636F6C6420657874727573696F67
:102B00006E2070726576656E7465640A0043616E4E
:102B10006E6F74206F70656E2073756264697220C9
:102B20000053442063617264206F6B0A006F70650C
:102B30006E526F6F74206661696C65640A00766F0F
:102B40006C756D652E696E6974206661696C65646B
:102B50000A00534420696E6974206661696C0A003A
:102B60004D3234004D3233202573004D343238005D
:102B7000496E697469616C697A6520454550524FA8
:102B80004D0046696C616D656E740054656D7065CD
:102B90007261747572650053746570732F6D6D008A
:102BA0004A65726B00416363656C65726174696F3D
:102BB0006E0056656C6F63697479005365742068A4
:102BC0006F6D65206F66667365747300436F6E6624
:102BD000696775726174696F6E0053746F726520F6
:102BE00073657474696E677300426564004265645E
:102BF000004E6F7A7A6C65004E6F7A7A6C6500468B
:102C0000616E2073706565640046616E2073706547
:102C1000656400436F6E66696775726174696F6E93
:102C2000004C6F61642073657474696E6773005241
:102C30006573746F7265206661696C7361666500A7
:102C400053746F72652073657474696E6773005096
:102C50007265686561742041425320636F6E66003F
:102C60005072656865617420504C4120636F6E66D8
:102C700000416476616E6365642053657474696EA7
:102C80006773004D61696E007C3C3E5E2B3D3F2FBB
:102C90005B5D3B2C2A225C00000048420000484259
:102CA00000008040000000000000A7430080AB430C
:102CB0000000BE43FFFFFF4A474175726F726120FB
:102CC0004135582052656164792E005072696E74E6
:102CD000696E672E2E2E005072696E7420706175B9
:102CE000736564000000A5430000A5430000BE43D7
:102CF000000080C0000050C100000000290A002030
:102D000062797465733B2063726320005365747449
:102D1000696E67732053746F7265642028004D6F6D
:102D200076652058004D6F76652059004D6F7665A9
:102D3000205A004578747275646572004578747223
:102D400075646572004D6F7665205A004D6F76652B
:102D50002059004D6F76652058004D6F74696F6E75
:102D60000044697361626C6520737465707065728C
:102D700073004D3834004175746F20686F6D6500C5
:102D8000473238004D6F76652061786973004D6178
:102D9000696E0043616E6E6F7420656E746572209B
:102DA0007375626469723A2000022E2E004D6169CB
:102DB0006E006F70656E206661696C65642C2046DC
:102DC000696C653A200000002100240027002A00D9
:102DD0002D003000330001010000040107010A0149
:102DE00000002200250028002B002E0031003400B6
:102DF00002010000050108010B0100002000230072
:102E0000260029002C002F003200000100000301E1
:102E1000060109010505050507050808080802025D
:102E200002020A0A08080404040401010101010164
:102E300001010303030303030303040707070C0C47
:102E40000C0C0C0C0C0C020202020606060606060E
:102E500006060B0B0B0B0B0B0B0B010210202008B3
:102E600008102040102040800201020108040201E5
:102E70000102040810204080804020100804020154
:102E800080040201804020100804020108040201AD
:102E90000102040810204080010204081020408034
:102EA00000000A0B02090C0D0E08070304010000C4
:102EB0000000000000000000000000000000000012
:102EC00000000000000000000000000012111000CF
:102ED00000000000000000000000000000000000F2
:102EE0000000000000004D6F766520302E316D6DC2
:102EF000004D6F766520316D6D004D6F7665203128
:102F0000306D6D004D6F7665206178697300486F94
:102F100074656E6420746F6F20636F6C6400457815
:102F2000747275646572004D6F7665205A004D6F3E
:102F300076652059004D6F76652058005072696E95
:102F4000742061626F727465640054656D7065729F
:102F50006174757265004D6F74696F6E0054756EA3
:102F600065004E6F205344206361726400507269A3
:102F70006E742066726F6D2053440053746F70201E
:102F80007072696E7400526573756D652070726938
:102F90006E7400436F6E66696775726174696F6EF7
:102FA000005061757365207072696E7400496E66B9
:102FB0006F2073637265656E00486F6D696E672080
:102FC0006661696C6564006F70656E0054524947B4
:102FD0004745524544003A20007A325F6D696E00E1
:102FE0007A5F6D696E00795F6D696E00785F6D69FB
:102FF0006E005265706F7274696E6720656E6473DF
:10300000746F70207374617475730A00205A3A00EB
:1030100020593A0020436F756E7420583A002045BD
:103020003A00205A3A0020593A00583A0043617257
:10303000642072656D6F7665640043617264206917
:103040006E736572746564004361703A00656E71F9
:1030500075657565696E67202200DCDB1FD311245E
:103060001FBECFEFD1E2DEBFCDBF00E00CBF13E04B
:10307000A0E0B2E0ECE1F3ED01E00BBF02C007908D
:103080000D92A435B107D9F724E1A4E5B3E001C05E
:103090001D92A338B207E1F718E1CEE2D8E100E0D3
:1030A00006C021970109802FFE010E94DAE5CD328A
:1030B000D10780E00807A9F70E9439D30C947CE976
:1030C0000C9400002F923F924F925F926F927F92EA
:1030D0008F929F92AF92BF92CF92DF92EF92FF9228
:1030E0000F931F93CF93DF93CDB7DEB7C158D109AC
:1030F0000FB6F894DEBF0FBECDBF0091810620E66B
:10310000029F800111240F5F1A4F8091530E80FFA0
:1031100005C00E94123CC8010E9402411092840323
:10312000109283038FE380938503109281031092A2
:10313000800310927B0310927C0310927D03109207
:103140007E03C8018C01DC012C9101962032D1F361
:103150002E34D1F411968C9190ED980F9A3020F086
:103160008D3211F08B3281F40E5F1F4FF8010F5F2B
:103170001F4F208120532A30C8F3CF018C010196C4
:10318000F80120812032D1F31093390800933808D8
:103190007801FFEFEF1AFF0AD8017C906AE270E035
:1031A000C7010E9439E9009731F0FC013197808115
:1031B0008032E1F31182BDE47B1631F0E4E57E1646
:1031C00019F0F7E47F12F9C0F70180812FEFE21ABE
:1031D000F20A8032C9F380538A3008F0EEC0709250
:1031E000850320918003309181034AE03196429F0C
:1031F000C001439F900D1124DF0111972C91022EE5
:10320000000C330B20533109280F391F8081805364
:103210008A3060F33093810320938003DF0131967D
:103220008C918032D9F34DE4741689F04091830378
:1032300050918403C0907B03D0907C03E0907D0389
:10324000F0907E03812C912C5401839448C02E3140
:10325000310591F03CF42731310571F02C31310505
:1032600029F70AC0253731050CF32737310524F03B
:10327000203A53E03507D1F6B0938403A09383033B
:103280009CC06132F1F161546A3108F079C0CF011C
:10329000FC01708101967032D9F380ED870F8A307E
:1032A00008F04DC0CF01A62FB0E01401250104C0E5
:1032B000220C331C441C551C6A95D2F7C228D32813
:1032C000E428F528009709F459C0801BAC5ABC4F7C
:1032D0008C93808181548A3108F05CC0DF01FD014C
:1032E00031966C916111CDCF509384034093830349
:1032F000C0927B03D0927C03E0927D03F0927E0328
:103300005CC08DE47812BFCF2032310509F0BBCF0D
:10331000C0927B03D0927C03E0927D03F0927E0307
:10332000F0938403E093830363E270E0CF010E9493
:1033300039E9009709F441C0DC011C923EC07E329D
:1033400011F481810DC07D3211F07B3269F48181ED
:1033500090ED980F9A3008F4A5CF8E3229F482812F
:1033600080538A3008F49ECF4115510511F00C941A
:10337000E532AF01415051090C94E53280E0A6CF0F
:103380004115510509F0A5CFAD01A3CF90ED980FE0
:103390009A3030F4BF0181918111F8CFCB0107C081
:1033A00093ED980F9230B0F38B32A1F3F7CFFC017D
:1033B000019660816032D9F391CF21E0209382039E
:1033C000809185038D3409F410C7843511F40C9471
:1033D000C332873411F00C94DE32809180039091D7
:1033E00081038430910509F40EC64CF497FDF9C6AB
:1033F00020912A02823091050CF0EAC021C08A3562
:10340000910509F436C63CF44C9709F0EAC60E94CF
:103410002AB20C94E0328B35910509F42EC68C3516
:10342000910509F0DEC63CE4232E32E0332E42E45F
:10343000C42E44E0D42EE12CF12C00E010E05AC65A
:10344000222311F40C94E0320E94863680914902C6
:10345000882321F080E09FE00E94275A8091530E3C
:1034600083FD7DC0C0900C0FD0900D0FE0900E0F2B
:10347000F0900F0F2091FC0E3091FD0E4091FE0E4A
:103480005091FF0EC701B6010E9457E1882309F44D
:1034900066C060918D0870918E0880918F08909120
:1034A000900820918C08211117C00E9457E72091A5
:1034B0003302309134026217730774F4C092FC0E29
:1034C000D092FD0EE092FE0EF092FF0E0E94123C92
:1034D00088EB93E00E94E03B80900C0F90900D0FE2
:1034E000A0900E0FB0900F0F2091FC0E3091FD0EAA
:1034F0004091FE0E5091FF0EC501B4010E94EAE515
:103500006B017C0120E030E0A9010E944BE887FFBD
:1035100004C0F7FAF094F7F8F09420912F0230915C
:1035200030024091310250913202C701B6010E942F
:10353000BDE120E030E04AEF54E40E944BE8181669
:1035400074F48092FC0E9092FD0EA092FE0EB0924A
:10355000FF0E0E94123C89E993E00E94E03B6091DB
:10356000350270913602072E000C880B990B0E94D1
:103570005EE120913702309138024091390250913A
:103580003A020E94BDE12AE037ED43E25CE30E948B
:10359000BDE169837A838B839C83C12CD12C760116
:1035A0008E010F5F1F4F2CE03FE048E05FE064E0DA
:1035B0007FE080E09FE00E9439A080E1E0E0FFE052
:1035C000A0EFBEE001900D928A95E1F70C94E032F5
:1035D000222311F40C94E03211E0029709F010E07C
:1035E0000E94863682E50E947936882309F436C126
:1035F0000E94F4356B017C014090F00E5090F10E6A
:103600006090F20E7090F30E2091F40E3091F50E52
:103610004091F60E5091F70E28A339A34AA35BA35D
:103620008091000F9091010FA091020FB091030FB4
:103630008CA39DA3AEA3BFA32091040F3091050FCF
:103640004091060F5091070F28A739A74AA75BA7FB
:1036500020E030E0A901C701B6010E9457E18823AC
:1036600009F4C9C4A30192016CA17DA18EA19FA1FF
:103670000E9457E181110DC028A139A14AA15BA187
:1036800068A579A58AA59BA50E9457E1882309F41E
:10369000B2C420E030E0A901C701B6010E9457E1A1
:1036A000881F8827881F181309C080E090E0A0E8D1
:1036B000BFE38CAB9DABAEABBFAB08C020E030E04E
:1036C00040E85FEB2CAB3DAB4EAB5FABA30192018F
:1036D0006CA17DA18EA19FA10E94EAE56CA77DA7A8
:1036E0008EA79FA728A139A14AA15BA168A579A5AA
:1036F0008AA59BA50E94EAE568AB79AB8AAB9BAB38
:103700002CA53DA54EA55FA5CA01B9010E94BDE14A
:103710004B015C0128A939A94AA95BA9CA01B901D1
:103720000E94BDE19B01AC01C501B4010E94EBE523
:103730000E9499E84B015C019B01AC0160E070E0E4
:1037400080E89FE30E94E5E668AF79AF8AAF9BAF60
:1037500020E030E040E05FE3C501B4010E94BDE13C
:103760004B015C01A7019601C701B6010E94BDE1B2
:103770006B017C01A5019401C501B4010E94BDE16A
:103780009B01AC01C701B6010E94EAE50E9499E8DD
:103790009B01AC016CA97DA98EA99FA90E94BDE1E6
:1037A0004B015C012CA13DA14EA15FA1C301B2015F
:1037B0000E94EBE520E030E040E05FE30E94BDE1E5
:1037C0006B017C0168A979A98AA99BA9905828ADA9
:1037D00039AD4AAD5BAD0E94BDE19B01AC01C501B5
:1037E000B4010E94BDE19B01AC01C701B6010E947A
:1037F000EBE5A30192010E94EAE56B017C0128A59B
:1038000039A54AA55BA568A179A18AA19BA10E94BF
:10381000EBE520E030E040E05FE30E94BDE12B01FA
:103820003C0128AD39AD4AAD5BAD6CA57DA58EA53B
:103830009FA50E94BDE19B01AC01C501B4010E949E
:10384000BDE19B01AC01C301B2010E94EBE528A1DF
:1038500039A14AA15BA10E94EAE514C089E40E9453
:103860007936882329F00E94F4356B017C0103C06E
:10387000C12CD12C76018AE40E9479368823D9F0B4
:103880000E94F43568A779A78AA79BA720E030E0BB
:10389000A901C701B6010E9457E181111AC020E0B9
:1038A00030E0A90168A579A58AA59BA50E9457E1EA
:1038B00081110FC0A0C320E030E0A901C701B6010B
:1038C0000E9457E1882309F496C318A619A61AA6E0
:1038D0001BA6D701C601B05888A399A3AAA3BBA36E
:1038E00028A539A54AA55BA550582CA33DA34EA3F6
:1038F0005FA39C01AD01BC01CD010E94BDE14B0164
:103900005C012CA13DA14EA15FA1CA01B9010E9499
:10391000BDE19B01AC01C501B4010E94EBE50E9431
:1039200099E828966CAF7DAF8EAF9FAF28978091B6
:10393000F00E9091F10EA091F20EB091F30E8CA7C3
:103940009DA7AEA7BFA7A7019601BC01CD010E940C
:10395000EBE568AF79AF8AAF9BAF2091F40E309161
:10396000F50E4091F60E5091F70E28AB39AB4AABED
:103970005BAB28A539A54AA55BA568A979A98AA941
:103980009BA90E94EBE560966CAF7DAF8EAF9FAFB9
:1039900060978091000F9091010FA091020FB0915C
:1039A000030F8CAB9DABAEABBFAB28AD39AD4AAD11
:1039B0005BADBC01CD010E94EAE56B017C01209169
:1039C000040F3091050F4091060F5091070F2CAF57
:1039D0003DAF4EAF5FAF60962CAD3DAD4EAD5FAD30
:1039E00060976CAD7DAD8EAD9FAD0E94EAE54B0159
:1039F0005C018091F80E9091F90EA091FA0EB091B1
:103A0000FB0E24968CAF9DAFAEAFBFAF24979C0149
:103A1000AD016091080F7091090F80910A0F90918C
:103A20000B0F0E94EAE52B013C0120910C0F309115
:103A30000D0F40910E0F50910F0F2C962CAF3DAFF4
:103A40004EAF5FAF2C978091FC0E9091FD0EA09130
:103A5000FE0EB091FF0E64968CAF9DAFAEAFBFAFC0
:103A60006497A701960168A179A18AA19BA10E94F0
:103A7000BDE168966CAF7DAF8EAF9FAF6897A50133
:103A800094016CA17DA18EA19FA10E94BDE19B012B
:103A9000AC0168966CAD7DAD8EAD9FAD68970E9410
:103AA000EBE568966CAF7DAF8EAF9FAF6897A501D1
:103AB000940168A179A18AA19BA10E94BDE14B015B
:103AC0005C01A70196016CA17DA18EA19FA10E941E
:103AD000BDE19B01AC01C501B4010E94EAE5689615
:103AE0002CAD3DAD4EAD5FAD68970E946AE66B01AF
:103AF0007C0120E030E0A9010E9457E187FF0AC065
:103B00002BED3FE049EC50E4C701B6010E94EBE524
:103B10006B017C01112351F02BED3FE049EC50E4A7
:103B2000C701B6010E94EAE56B017C0120E030E0AC
:103B3000A901C701B6010E9457E1811120C02CA93B
:103B40003DA94EA95FA96CA57DA58EA59FA50E9444
:103B500057E1811114C02CAD3DAD4EAD5FAD68A9EC
:103B600079A98AA99BA90E9457E1811108C0EBEDB0
:103B7000CE2EEFE0DE2EE9ECEE2EE0E4FE2EA701E5
:103B8000960128966CAD7DAD8EAD9FAD28970E94B5
:103B9000BDE14B015C0120E030E0A901C301B201AD
:103BA0000E9457E18823C9F0A5019401C501B40121
:103BB0000E94BDE14B015C01A3019201C301B2016E
:103BC0000E94BDE19B01AC01C501B4010E94EBE57F
:103BD0000E9499E84B015C010DC020E030E0A90192
:103BE000C501B4010E944BE887FF04C0B7FAB09446
:103BF000B7F8B0942FE632E143E85AE3C501B401C7
:103C00000E9457E187FDEBC1C501B4010E948DE719
:103C10000E945EE71B01672B19F422242394312CA8
:103C2000B10180E090E00E945CE14B015C019B01EE
:103C3000AC01C701B6010E94E5E66CA77DA78EA77F
:103C40009FA7A5019401C301B2010E94E5E6289651
:103C50006CAF7DAF8EAF9FAF289764962CAD3DAD16
:103C60004EAD5FAD64972C966CAD7DAD8EAD9FADC6
:103C70002C970E94EAE5A50194010E94E5E62C96A6
:103C80006CAF7DAF8EAF9FAF2C972CA53DA54EA5F9
:103C90005FA5CA01B9010E94BDE120E030E040E02B
:103CA0005FE30E94BDE19B01AC0160E070E080E851
:103CB0009FE30E94EAE56CAF7DAF8EAF9FAF249685
:103CC0002CAD3DAD4EAD5FAD249729873A874B872C
:103CD0005C8764968CAD9DADAEADBFAD64978D87AE
:103CE0009E87AF87B88B6091350270913602072EA0
:103CF000000C880B990B0E945EE1209137023091F5
:103D000038024091390250913A020E94BDE12AE006
:103D100037ED43E25CE30E94BDE16C8F7D8F8E8FB7
:103D20009F8F0E9411C89B01AC0128533F4F4F4FFA
:103D30005F4F24962CAF3DAF4EAF5FAF249748A0A6
:103D400059A06AA07BA041E050E05DAB4CAB59E1CB
:103D500058ABACA9BDA9A215B30509F411C10E94C5
:103D6000A68B0E9411C8DC01CB0124962CAD3DAD81
:103D70004EAD5FAD2497821B930BA40BB50BB7FD23
:103D800010C00E9411C89B01AC0128533F4F4F4FF8
:103D90005F4F24962CAF3DAF4EAF5FAF24970E948C
:103DA000D43C38A9315038AB3323E9F12CAD3DADCB
:103DB0004EAD5FAD6CA17DA18EA19FA10E94BDE122
:103DC0006B017C012CA53DA54EA55FA5B201C301E9
:103DD0000E94BDE1A70196010E94EBE57B018C01E9
:103DE0002CAD3DAD4EAD5FADB201C3010E94BDE152
:103DF0004B015C012CA53DA54EA55FA56CA17DA145
:103E00008EA19FA10E94BDE19B01AC01C501B4013F
:103E10000E94EAE52B013C01C701D8018CA39DA3B8
:103E2000AEA3BFA351C04CA95DA9BA0180E090E048
:103E30000E945CE12CA53DA54EA55FA50E94BDE1B9
:103E40004B015C010E94E0E66B017C01C501B401FD
:103E50000E948BE84B015C01A701960168A179A142
:103E60008AA19BA10E94BDE12B013C01A501940107
:103E700068A579A58AA59BA50E94BDE19B01AC011F
:103E8000C301B2010E94EBE52B013C01A5019401A5
:103E900068A179A18AA19BA10E94BDE14B015C01AF
:103EA000A701960168A579A58AA59BA50E94BDE1F9
:103EB0009B01AC01C501B4010E94EAE56CA37DA39E
:103EC0008EA39FA359E158AB9201A30168AD79ADD0
:103ED0008AAD9BAD0E94EBE569837A838B839C83DB
:103EE0002CA13DA14EA15FA160966CAD7DAD8EADC4
:103EF0009FAD60970E94EBE56D837E838F839887EB
:103F000028962CAD3DAD4EAD5FAD289769857A857D
:103F10008B859C850E94EBE569877A878B879C87D8
:103F20002C962CAD3DAD4EAD5FAD2C976D857E854D
:103F30008F8598890E94EBE56D877E878F87988BA8
:103F400080914902882321F0CE0101960E94275AD0
:103F5000C12CD12C60E8E62E6FE3F62E8E01045EB4
:103F60001F4F9E01235F3F4FAE01475F5F4FBE0172
:103F70006B5F7F4FCE0101960E9439A0811129C04D
:103F800080E1E0E0FFE0DE01119601900D928A955C
:103F9000E1F7C12CD12C50E8E52E5FE3F52E8E0120
:103FA000045E1F4F9E01235F3F4FAE01475F5F4F8F
:103FB000BE016B5F7F4FCE0101960E9439A080E168
:103FC000FE013196A0EFBEE001900D928A95E1F7D7
:103FD00006C08CA99DA901969DAB8CABBACE0E9460
:103FE00011C8609314077093150780931607909378
:103FF00017070C94E0320E940E3C83ED93E00E9480
:10400000E03B0C94E03280E50E947936882329F069
:104010000E94B0356B017C0103C0C12CD12C76010C
:1040200083E50E947936882321F00E9427366B01B0
:104030007C010E945D5580913A08811105C060E0C5
:1040400089EE93E00E947BBB0E9411C8C60ED71E6A
:10405000E81EF91E0E9411C8DC01CB018C199D09D4
:10406000AE09BF09B7FD02C00C94E0320E94D43CF7
:10407000F1CF10927F030C94E03220937F030C94D5
:10408000E0320E94F4352B013C01133059F0F70166
:10409000E65DFB4F20813181428153810E94EAE538
:1040A0002B013C01F701E051F14F20813181428128
:1040B0005381C301B2010E94EAE54B015C012DEB83
:1040C00037E346E855EB0E944BE887FD1BC02DEB1C
:1040D00037E346E855E3C501B4010E9457E11816DD
:1040E0008CF01F5FF4E0CF0ED11C24E0E20EF11C37
:1040F000143031F1F10181911F010E94793688233A
:1041000081F3BFCF133051F44092FC0E5092FD0E5C
:104110006092FE0E7092FF0E01E0E3CFA5019401C4
:10412000D6016D917D918D919C910E94EBE5F601F8
:104130006083718382839383812F0E94B95AD1CF88
:10414000002309F44AC02091FC0E3091FD0E4091ED
:10415000FE0E5091FF0E6091740E7091750E80915D
:10416000760E9091770E0E94BDE10E9458E8609310
:10417000D6117093D7118093D8119093D911909143
:10418000B4118091B511981719F00E94FF5425C001
:104190000E945D5580916F0081FB992790F981FF06
:1041A00005C080916F008D7F80936F004091D61184
:1041B0005091D7116091D8117091D91140939C07FB
:1041C00050939D0760939E0770939F07992329F052
:1041D00080916F00826080936F000E94DFCC0C940E
:1041E000E0320E94C7A00C94E0328091800390914D
:1041F00081038237910511F40C9473290CF0FEC0F1
:104200008B34910509F4A0C40CF094C08831910559
:1042100009F4BFC20CF061C08231910509F494C762
:10422000E4F497FF02C00C94C032823091050CF484
:1042300026C2419711F00C94C03260E085E094E012
:104240000E947BBB5F988A9880910801817080935F
:104250000601479812980C94E0328531910509F4D3
:104260007EC26CF5449711F00C94C0328DE194E05D
:104270000E94E03B1092DA0440E050E0BA0186E987
:1042800091E10E9493A48BE1E6E9F1E1DE01119650
:1042900001900D928A95E1F740E050E0BE016F5F1A
:1042A0007F4F80E090E00E94ADA6CE0101960E9473
:1042B000ADAD8EE094E00E94E03B0C94E03286319C
:1042C000910509F450C2479711F00C94C0328091C7
:1042D000830390918403FC0153C28D31910511F445
:1042E0000C94E032C4F48A31910509F463C20CF4F1
:1042F00058C28B31910509F46BC24C9711F00C94A4
:10430000C03240E060E080918303909184030E947A
:104310003B6A0C94E0328F31910509F458C30CF4D8
:10432000ACC28032910509F40DC38A9709F4EAC33F
:104330000C94C0328836910509F412C4ACF582356C
:10434000910509F4F8C604F58D34910509F404C407
:104350000CF4FEC38135910511F00C94C0320E941B
:1043600083870E94D7BA0E94E6560E94933B68EE6C
:1043700073E080E090E00E94143B60E086E195E00D
:104380000E947BBB0C94E0328435910509F4DCC6B5
:104390000CF4D5C68535910509F403C78C35910514
:1043A00009F412C70C94C0328D36910509F400C48B
:1043B000ACF48A36910509F490C60CF453C68B36DA
:1043C000910509F4A8C68C36910511F00C94C03201
:1043D00010927114109229020C94E0328F369105DC
:1043E00009F4B5C50CF4A0C58037910509F4F5C5ED
:1043F0008137910509F4F5C50C94C0328D3D9105C6
:1044000011F40C94022C0CF0B5C08B39910509F411
:104410003CC60CF07CC08737910509F4A7C70CF0A7
:1044200066C08537910509F464C70CF06BC7833704
:10443000910511F00C94C03284E196E00E94E03BBB
:1044400060E084E096E00E94A7D261E08DEF95E005
:104450000E94A7D261E082EF95E00E94A7D261E0BE
:1044600082EE95E00E94A7D260E089ED95E00E947F
:10447000A7D261E08FEC95E00E94A7D260E085ECC6
:1044800095E00E94A7D260E08DEB95E00E94A7D254
:1044900060E08FEA95E00E94A7D260E081EA95E0B3
:1044A0000E94A7D260E082E995E00E94A7D260E076
:1044B00084E895E00E94A7D260E08EE695E00E9435
:1044C000A7D260E08DE595E00E94A7D260E088E485
:1044D00095E00E94A7D261E085E395E00E94A7D213
:1044E00060E088E295E00E94A7D20C94E032893720
:1044F000910509F448C70CF43DC78C38910509F4BF
:1045000093C58139910509F446C70C94C0328C3C9F
:10451000910511F40C94BA2ACCF4883C910509F465
:1045200098C74CF48E3B910511F00C94C0320E9458
:10453000F77E0C94E032893C910509F4D0C78B3C9E
:10454000910511F40C94972A0C94C0328E3C91057D
:1045500011F40C94022B14F40C94EF2A833D910572
:1045600011F40C943F2B8C3D910511F40C94F52B18
:104570000C94C0328C3A31E0930711F40C948031E2
:104580000CF03FC08F3251E0950711F40C94F12DDF
:10459000DCF48C32B1E09B0711F40C94A32C3CF4B6
:1045A000823E910511F40C94582C0C94C0328D323B
:1045B000F1E09F0711F40C94B82C8E32914011F465
:1045C0000C94AF2D0C94C032833631E0930711F474
:1045D0000C94AC323CF48033914011F40C943C2D9B
:1045E0000C94C0328039A1E09A0711F40C947D310B
:1045F0008A39914011F00C94C0320E943A3B0C94DD
:10460000E032883FE1E09E0711F40C949432ECF420
:10461000853F21E0920711F40C9482324CF4843FE0
:10462000914011F00C94C0320E9404B60C94E03218
:10463000863F51E0950711F40C948532873F9140F5
:1046400011F40C9488320C94C0328A39B2E09B0782
:1046500011F40C94252B3CF48C30924011F40C9402
:10466000A4320C94C032803A23E0920709F49FC12F
:10467000873E934011F40C94B3320C94C032A09056
:104680008303B090840380E50E947936882359F033
:104690000E94B0356B017C0111E0672B682B692B00
:1046A00031F410E004C010E0C12CD12C760183E578
:1046B0000E947936882311F40C94E9320E9427363F
:1046C0006B017C0111110BC0672B682B692B39F42E
:1046D000A114B10421F0D5018C91811102C010E028
:1046E00001C011E00E945D55112329F061E0C50170
:1046F0000E94B5BB05C060E082EF93E00E947BBBE7
:1047000083E08093820381E080937114C114D1040B
:10471000E104F104E9F00E9411C8C60ED71EE81E9C
:10472000F91E0E9411C8DC01CB018C199D09AE094C
:10473000BF09B7FD06C00E94DCBB109271140C9437
:10474000E032809171148823B1F30E94D43CE9CF08
:1047500080917114882379F30E94D43CF9CF0E9490
:104760005BA10C94E0320E942C6A80914F13877FEA
:1047700080934F130C94E032203209F4108231966A
:1047800020812111F9CF40E061E00E943B6A0C9446
:10479000E0320E94976B0E9488BA0E94DCBB0C94A6
:1047A000E03280914F138B7F80934F130E94C2BAE7
:1047B0000C94E03280914F1383FD02C00C94E032E0
:1047C00083E50E94793681110C94EE320C94E0322C
:1047D00083E40E943236882319F188E394E00E9432
:1047E000E03B80914011882391F0BE016F5F7F4FC5
:1047F0008DE391E10E9474AC8E010F5F1F4FF801B1
:1048000081918F01882339F00E94D63BF8CF8EE248
:1048100094E00E94E03B8AE00E94D63B0C94E03298
:1048200080914F1383FF23C082FF21C087E494E06F
:104830000E94E03B60914B1370914C1380914D139B
:1048400090914E134AE00E949A3F8FE20E94D63B1D
:1048500060914713709148138091491390914A13C6
:104860004AE00E949A3F0E94FC400C94E03289E5A5
:1048700094E00E94E03B0C94E03280914F1383FD62
:1048800002C00C94E0320E94B0A06091830370914A
:10489000840380914F1383FD02C00C94E032CE015B
:1048A0004C960E9418C28C01009711F40C94E032CF
:1048B0006C8D7D8D19821C8222E0AC01CE010196A7
:1048C0000E945CB0811102C0F12C14C0CE0101968F
:1048D0000E9486C18823C1F361E0CE0101960E9447
:1048E00058AC009789F325EEDC012C931C820E94C2
:1048F0006DA2F82ECE0101960E94ADADFF2089F089
:1049000082E894E00E94E03BC8010E9402411092BC
:104910004B1310924C1310924D1310924E130C9493
:10492000E0328AE694E00E94E03BF80181918F0139
:10493000882319F00E94D63BF8CF8EE20E94D63B26
:104940000C94E03280914F1382FD0E945D5580915E
:104950004F1383FD02C00C94E03280E50E94D7A083
:10496000182F482F61E080918303909184030E9467
:104970003B6A83E50E947936882381F00E94C03526
:10498000AB01BC0140934B1350934C1360934D13F8
:1049900070934E138DE391E10E9493A40E94976B54
:1049A00011110C94E0320E9488BA0C94E0322091EC
:1049B00083033091840390914F13926090934F132F
:1049C00040E060E0C9010E943B6A0C94E0320E9422
:1049D00054BA2CE3C22ED12CE12CF12CA701960164
:1049E0000E944BE5762E672ECA01B901A7019601F8
:1049F0000E944BE56B017C01CA01B90128E130E05E
:104A000040E050E00E944BE54B015C01C9016DE6BE
:104A100071E00E9493E58E010F5F1F4F61157105D4
:104A200099F06F927F92DF92CF929F928F929F9395
:104A30008F937F936F9388EB94E09F938F931F9353
:104A40000F930E94EEE012C00097B1F06F927F9238
:104A5000DF92CF929F928F929F938F9388EA94E0F8
:104A60009F938F931F930F930E94EEE00FB6F894DD
:104A7000DEBF0FBECDBF36C081149104A104B104C6
:104A800079F06F927F92DF92CF929F928F928CE912
:104A900094E09F938F931F930F930E94EEE0E6CFD5
:104AA000C114D104E104F10469F06F927F92DF92A6
:104AB000CF9284E994E09F938F931F930F930E946A
:104AC000EEE0D4CF6F927F9280E994E09F938F9332
:104AD0001F930F930E94EEE00F900F900F900F9096
:104AE0000F900F9060E0C8010E94B5BB0E94123C7D
:104AF000B8018CEC94E00E94EF3B8AE00E94D63B28
:104B00000C94E03283E50E947936882311F40C94EA
:104B1000E0320E94D035F82E6DE070E080E50E9412
:104B20000B378C0197FF02C00C94E032E82E89E429
:104B30000E94D7A081110C94FF32802F0E94C7D20F
:104B40008111D3C60C94FF320E9488BA0C94E032D3
:104B50000E94C2BA0C94E0320E94D7BA0C94E032A0
:104B60008091530E83FF02C00C94E0320E943C40BF
:104B700087FF02C00C94E03283E50E9479368823D7
:104B800099F00E94F4350E9457E78B0170935414FA
:104B90006093531480E00E9436870B35110524F48E
:104BA0000E94D7BA0E94DCBB0E94EFD20C94E03284
:104BB0008091530E83FF02C00C94E0320E943C406F
:104BC0002D968FAF2D9787FF02C00C94E03283E5BE
:104BD0000E94793688A3811106C082E50E94793649
:104BE000882309F43DC00E94F4350E9457E7709372
:104BF00054146093531480E00E9436870E94F43569
:104C000020E030E044EB52E40E9457E1181614F41F
:104C10000C9418330E94D7BA0E94DCBB60915314E5
:104C200070915414072E000C880B990B0E945EE1C2
:104C30006B017C0180908D0890908E08A0908F0869
:104C4000B0909008A50194010E944BE8181614F446
:104C50000C941C33B8A1BB2311F40C94233381E0D2
:104C6000EE968FAFEE970E94EFD2EE968FADEE9755
:104C7000882311F40C94E03281E08093290218A675
:104C800019A61AA61BA61CAE1DAE1EAE1FAE1CA2F8
:104C900021961FAE2197ECE36196EFAF6197FCE19F
:104CA0002596FFAF259726E429962FAF2997C12C8B
:104CB000D12C80E8E82E9FEBF92E812C912C540109
:104CC0006091531470915414072E000C880B990BAB
:104CD0000E945EE1162F072F782E692E262F372F80
:104CE000482F592FB601C7010E9457E18823F9F0D8
:104CF00020918D0830918E0840918F085091900836
:104D0000612F702F872D962D0E9457E1881F8827CD
:104D1000881F8CA338A1332371F0882361F0809120
:104D20002902882309F4FCC00E94DCBBF9C01C2DB9
:104D30000D2D7E2C6F2C0E9411C86B017C01DC01B3
:104D4000CB012CAD3DAD4EAD5FAD821B930BA40BE3
:104D5000B50BB7FD35C0D701C60188519C4FAF4F89
:104D6000BF4F8CAF9DAFAEAFBFAF2D968FAD2D9720
:104D70000E943E8689ED94E00E94E03B81149104FC
:104D8000A104B104B9F0D501C401805F984DAF4FC3
:104D9000BF4FBC01CD016C197D098E099F0928EE1A
:104DA00033E040E050E00E944BE5CA01B9010E94A7
:104DB000134003C08FE30E94D63B8AE00E94D63B9B
:104DC0000E94D43C0E9411C8609314077093150789
:104DD000809316079093170790918D089CA7A09138
:104DE0008E08A8ABB0918F08BCABE0919008E8AFFB
:104DF000292F3A2F4B2F5E2F612F702F872D962D45
:104E00000E94EAE51B012C0120E030E0A9010E948C
:104E10004BE887FF04C057FA509457F85094811418
:104E20009104A104B10459F420E030E040E85FE3CC
:104E3000C201B1010E9457E187FF0DC00AC020E006
:104E400030E040E450E4C201B1010E944BE8181682
:104E500014F446015701FCA1FF2309F445C028A51D
:104E600039A54AA55BA5211531054105510541F03C
:104E7000D701C601821B930BA40BB50BB7FD34C041
:104E80002CA538A94CA958AD21966FAD21976196F4
:104E90007FAD619725968FAD259729969FAD299770
:104EA0000E94EAE520E030E040EC5FE30E9457E139
:104EB00087FD35CFD701C601805A9541AF4FBF4F0F
:104EC00088A799A7AAA7BBA79CA521969FAF2197C2
:104ED000A8A96196AFAF6197BCA92596BFAF2597EA
:104EE000E8AD2996EFAF299780912902882309F42C
:104EF00016CF81149104A104B10429F4C12ED02E3F
:104F0000E72CF62CDDCEF0E1CF1AF7E2DF0AE1085C
:104F1000F108C818D908EA08FB08F7FE00CFEECF61
:104F2000809129020C94E0328EE40E947936882325
:104F300011F40C94E0320E94C03560931007709316
:104F4000110780931207909313070C94E03283E5C6
:104F50000E943236882359F083E50E9479368823EF
:104F600019F00E94D03501C080E08093530E0E945A
:104F7000123C85E095E00E94E03B8091530E88232F
:104F800049F10BEFE02E04E0F02E00E010E020E00D
:104F90008091530E90E0002E02C0959587950A945B
:104FA000E2F780FF0EC0DD24D394D20E222319F045
:104FB0008CE20E94D63BF701859194910E94E03BE0
:104FC0002D2D0F5F1F4F32E0E30EF11C0530110550
:104FD000F9F621CC87EF94E01CCC80E090E00E94B1
:104FE000163C83E50E947936882371F00E94D03503
:104FF0008093000290E0CD9714F40C94E0328CE39F
:10500000809300020C94E0320E94123C4091000216
:1050100050E060E070E08CE095E00E9402408AE0A1
:105020000E94D63B0C94E0328091530E83FF02C065
:105030000C94E03283E50E947936882311F40C94B5
:10504000E0320E94F4350E9457E76639710514F08A
:1050500066E970E070935214609351140E94E986DF
:105060000C94E0320E943C40182F87FD0AC083E177
:1050700095E00E94E03B812F0E943E868AE00E94DC
:10508000D63B109282030C94963583E50E947936C4
:10509000882311F40C94E0320E94D035182F90E050
:1050A000CD970CF01CE3109372030E9411C86B01A2
:1050B0007C01212F30E0A8EEB3E00E9478E5C60E17
:1050C000D71EE81EF91EC0926E03D0926F03E092C5
:1050D0007003F09271030C94E03280E50E947936FF
:1050E000882321F00E94D035182F01C010E06FEF07
:1050F00070E083E50E9491D2123010F00C94E032FF
:10510000E12FF0E08F3F910508F08FEFE657F74F62
:1051100080830C94E03260E070E080E50E9491D2E0
:105120008230910510F00C94E032FC01E657F74F05
:1051300010820C94E032109276030C94E03281E0FD
:10514000809376030C94E03283E50E9479368823BD
:1051500061F00E94273660930102709302028093EF
:105160000302909304020C94E03288E50E943236E8
:1051700081110C942E3389E50E94323681110C94F2
:105180002E338AE50E94323681110C942E3385E449
:105190000E94323681110C942E330E94E6560C94F4
:1051A000E03283E50E943236882311F40C94E03219
:1051B0000E94273660937703709378038093790376
:1051C00090937A030C94E0320E943C4087FF02C027
:1051D0000C94E032B0E5CB2EB2E0DB2E14E5E12EEC
:1051E0001EE0F12E10E0D6018D916D010E94323645
:1051F000882309F46DC0133009F063C00E94F435B0
:105200004B015C0120E030E040EA51E40E9457E1AC
:1052100087FF4EC0A50194016091740E7091750EC8
:105220008091760E9091770E0E94E5E62B013C016D
:105230009B01AC0160915E0870915F0880916008ED
:10524000909161080E94BDE160935E0870935F08D1
:105250008093600890936108A30192016091840E8D
:105260007091850E8091860E9091870E0E94BDE10F
:105270006093840E7093850E8093860E9093870EB4
:1052800060916E0870916F0880917008909171081C
:105290000E945CE1A30192010E94BDE10E945EE7D1
:1052A00060936E0870936F088093700890937108F4
:1052B0008092740E9092750EA092760EB092770E38
:1052C00007C00E94F435F701648B758B868B978B32
:1052D0001F5FF4E0EF0EF11C143009F084CF0E9440
:1052E00043560C94E0320E945D550E94DFCC0C9432
:1052F000E03260E080918303909184030E94B5BB0B
:105300000C94E032009183031091840383E0F12C2C
:1053100040E08150E9F0D8019C91292F2B7F213466
:10532000C1F711962C912133A1F7913421F09534D6
:1053300021F441E002C0FF24F39498012E5F3F4F17
:1053400089012F5F3F4FF80190819032C9F3E1CF7F
:1053500041110E94123CFF2021F083EE96E00E9452
:10536000E03BC8010E9402410C94E0320E941DCE35
:105370000C94E03281E08093EF0E8093EE0E0E9459
:1053800041CE0C94E0321092EF0E1092EE0E0E947D
:1053900041CE0C94E03260E070E083E50E940B3770
:1053A0008C0111270230110544F00E940E3C87EE5B
:1053B00096E00E94E03B0C94E03288E40E9479364B
:1053C0008823A9F00E94C035643B71053CF065302C
:1053D000F1E07F072CF064E071E002C064EB70E064
:1053E000F801EE0FFF1FE959FB4F7183608386E4DC
:1053F0000E947936882381F00E94C03577FD07C06E
:105400006F3F710529F024F06FEF70E001C060E09C
:10541000F801EF59FB4F608382E40E9479368823BC
:1054200011F40C94E0320E94C0356530710534F0FF
:10543000683871052CF067E870E002C065E070E044
:10544000000F111FF801ED59FB4F718360830C941D
:10545000E0320E943C40182F87FF02C00C94E032DB
:1054600084E40E9432368823B1F10E94F43501E0D1
:1054700020E030E0A9010E9457E1811101C000E065
:1054800000935204002339F10E94F43524E0120203
:10549000F0011124E95AFB4F608371838283938367
:1054A00020E030E0A9016091570470915804809188
:1054B000590490915A040E9457E181110CC080E078
:1054C00090E0A0EEBFE38093570490935804A0931C
:1054D0005904B0935A040E946B520C94E0320E941B
:1054E0003C4087FF02C00C94E03254E5E52E5EE0BC
:1054F000F52E04E512E064E0D62ED00ED8018D9191
:105500008D010E943236882349F00E94F4350E94B2
:105510005EE7F7016083718382839383F4E0EF0E8B
:10552000F11CD012EBCF0E94B8540C94E0320E94D0
:105530003C4087FF02C00C94E03244E5E42E42E098
:10554000F42E00E010E0D7018D917D010E943236EB
:10555000882349F00E94F435F801EC5AF14F64A316
:1055600075A386A397A30C5F1F4F0031110559F750
:105570000C94E03280917C0387FF02C00C9460336E
:1055800080917D038E7011F00C9460334091880EF1
:105590005091890E60918A0E70918B0E8FE097E08A
:1055A0000E94DA4040918C0E50918D0E60918E0ECB
:1055B00070918F0E8CE097E00E94DA404091900E3F
:1055C0005091910E6091920E7091930E89E097E048
:1055D0000E94DA408AE00E94D63B0C94E03280912F
:1055E0007B03827111F00C94A63380917D038C783B
:1055F00011F00C94A63380917E03837011F00C940B
:10560000A633DEC728E5C22E22E0D22E34EFE32EE9
:1056100034E0F32E10E0F60181916F010E943236E2
:10562000882359F00E94F435D7016D937D938D93B3
:105630009C931397812F0E94B95A1F5FB4E0EB0E21
:10564000F11C133041F70C94ED208AE50E943236AC
:10565000882351F00E94F43560934E0470934F04F8
:10566000809350049093510480917D0387FDA8C7D7
:1056700080917E03837009F0A3C70C9411340E94BB
:10568000123C8AE697E00E94E03B83E50E943236B6
:10569000882321F00E94E4358093490280914902D9
:1056A000811103C083E497E002C087E497E00E9481
:1056B000E03B82E697E00E94E03B20912A04309193
:1056C0002B0440912C0450912D046091360470916C
:1056D000370480913804909139040E94EBE5AB01C6
:1056E000BC0180E697E00E94DA4020912E043091C0
:1056F0002F04409130045091310460913A0470912C
:105700003B0480913C0490913D040E94EBE5AB0189
:10571000BC018DE597E00E94DA402091320430917F
:105720003304409134045091350460913E047091EB
:105730003F0480914004909141040E94EBE5AB014D
:10574000BC018AE597E00E94DA4082E597E00E947A
:10575000E03B20912A0430912B0440912C0450917D
:105760002D046091090270910A0280910B029091C0
:105770000C020E94EBE5AB01BC0180E597E00E94C2
:10578000DA4020912E0430912F0440913004509142
:10579000310460910D0270910E0280910F02909180
:1057A00010020E94EBE5AB01BC018DE497E00E9482
:1057B000DA40209132043091330440913404509106
:1057C0003504609111027091120280911302909140
:1057D00014020E94EBE5AB01BC018AE497E00E9451
:1057E000DA408AE00E94D63BEBC683E50E94793618
:1057F000882309F4E5C60E94C03570933602609391
:105800003502DEC60E943C40F82E87FDD9C683E5EE
:105810000E9479360F2D0F2C000C110B882369F193
:105820000E94C035F801EE0FFF1FEB5EFD4F718344
:105830006083000F111F000F111FF801E15DFD4F84
:105840007F01072E000C880B990B0E945EE12AE075
:1058500037ED43E25CE30E94BDE1F801ED5AFB4FF6
:1058600020813181428153810E94BDE1D7016D9336
:105870007D938D939C931397A3C60E94123C85E45D
:105880000E94D63B80E38F0D0E94D63B000F111F74
:10589000F801EB5EFD4F608171818AE797E00E941D
:1058A0002F4085E20E94D63B8AE00E94D63B88C604
:1058B00080E50E943236882309F482C660E070E0F9
:1058C00080E50E940B37F82E6FEF7FEF83E50E9493
:1058D0000B378C010196039708F072C6F7FC70C66F
:1058E0008F2D0E94C7D2882339F00E940E3C82E897
:1058F00097E00E94E03B64C60E945D5560E08F2DFA
:105900000E94D2C60F3FBFEF1B0731F001301105D7
:1059100071F401E010E00DC08F2D0E9479C631E0D6
:1059200020E0892B09F030E0032F122F02C000E0A5
:1059300010E08F2D0E9479C68017910709F440C6A8
:105940000E94D43CF6CF64E071E083E50E9491D2DE
:105950008C0168EE73E080E50E9491D28938E3E122
:105960009E0710F088E893E1B8010E944DBB28C65D
:1059700085E40E947936811110C080E50E9432369C
:105980008823B1F00E94F4356093A0077093A107BB
:105990008093A2079093A3070BC00E94D035882361
:1059A00061F30E940E3C81E997E00E94E03B08C64B
:1059B00089E40E943236882381F00E94F4352CEA73
:1059C00035EC47E25EE30E94BDE16093A40770936B
:1059D000A5078093A6079093A70784E40E94323618
:1059E000882381F00E94F4352CEA35EC47E25EE32F
:1059F0000E94E5E66093A8077093A9078093AA0721
:105A00009093AB070E94123C4091A0075091A107D0
:105A10006091A2077091A3078BEA97E00E94DA4099
:105A20002CEA35EC47E25EE36091A4077091A5078C
:105A30008091A6079091A7070E94E5E6AB01BC0103
:105A400087EA97E00E94EB402CEA35EC47E25EE300
:105A50006091A8077091A9078091AA079091AB0760
:105A60000E94BDE1AB01BC0183EA97E00E94EB40DC
:105A70008AE00E94D63BA4C580E50E943236882386
:105A800051F00E94F4356093AC077093AD0780939A
:105A9000AE079093AF0789E40E943236882381F0E5
:105AA0000E94F4352CEA35EC47E25EE30E94BDE14A
:105AB0006093B0077093B1078093B2079093B307D8
:105AC00084E40E943236882381F00E94F4352CEA67
:105AD00035EC47E25EE30E94E5E66093B40770931D
